:02000000803E40
:03000B000202CC22
:03001B000202DD01
:0200330041EC9E
:10004000758140C202C203119F31B631A1D2AF31D6
:1000500033014FC29353900FEC54F04290C2920080
:10006000000000D29253900FECC454F04290C29220
:1000700000000000D292319422D29353900FEC549E
:10008000F04290C29200000000D29253900FECC454
:1000900054F04290C29200000000D2923194227C2F
:1000A0000211537C2811537C0C11537C0611537C94
:1000B0000111537C0011797C0011797C801153224D
:1000C000B900047480800274C02AFC1153200030EF
:1000D000743026FC11797C2E117908E675F00A84BB
:1000E0002430FC1179E5F02430FC117908E675F034
:1000F0000A842430FC1179E5F02430FC1179212E9A
:10010000E675F00A842430FC1179E5F02430FC1106
:10011000797C2E117908743026FC117908E675F087
:100120000A842430FC1179E5F02430FC11797C73C9
:100130001179227C8011537C3C11797C2D11797CC2
:010140004975
:1001410011797C4E11797C4111797C3A11797900D0
:100151007A06785011C07C8E11537C2D11797C3E2A
:1001610011797CC011537C3C11797C2D11797C492A
:1001710011797C4E11797C4211797C3A117979019E
:100181007A06785511C07CCE11537C2D11797C3EB5
:100191001179227F017E8E7D02DDFEDEFADFF622FD
:1001A10075D80075D90175DA3175DB31D2AE75E9D3
:1001B1000075F90022758911758CEC758A78D2A9C0
:1001C100D2ABD28CC28E2230012D20B22F30B2FDA3
:1001D100754701C2AFC202C203C2DEC28EC200B203
:1001E1009175500075510075520075550075560096
:1001F100755700D2AF800520B202D20122E548B482
:100201000104B2908002B2B422200219D20220006D
:100211000A75E99C75F9FFD2DE800E75E91875F94A
:10022100FCD2DE8004C2DEC20222200319D20320E6
:10023100000A758B9C758DFFD28E800E758B18759B
:100241008DFCD28E8004C28EC203222000207852FF
:1002510075E99C75F9FF06B6643076001806B66438
:100261002976001806B60A22760AD200801C785236
:1002710075E91875F9FC06B6641076001806B60A19
:050281000976001806DB
:10028600B664027600222000207957758B9C758D06
:10029600FF07B7643077001907B764297700190795
:1002A600B70A22770AD200801C7952758B18758D91
:1002B600FC07B7641077001907B60A097700190713
:1002C600B76402770022C0D0C0E0C2D4D2D331FED8
:1002D60031C8D0E0D0D032C0D0C0E0D2D4D2D351D1
:1002E6008CD0E0D0D032C0D0C0E0C2D4D2D330D887
:1002F60007C2D812020A801230D907C2D912022BBD
:0F030600800830DFFDC2DF12024CD0E0D0D032D1
:00000001FF
